S0130000436861736572342D382D472E73726563AE
S11300000C945B000C9478000C9478000C947800A9
S11300100C9478000C9478000C9478000C943903B8
S11300200C9478000C9478000C9405040C947800DB
S11300300C9478000C9478000C9478000C9478005C
S11300400C9478000C9478000C9478000C9478004C
S11300500C9478000C010F011201150118011B0109
S11300601E012101240127012C012A015A015E01EC
S1130070620166016A016E01720176017A01410230
S11300804B0255025F02690273027D0287029102EC
S11300909B02B102BB02C502CF02D902E302ED0208
S11300A0F7020103150319031D0321032503290383
S11300B02D033103350311241FBECFE5D8E0DEBF85
S11300C0CDBF11E0A0E6B0E0E6ECF8E002C0059098
S11300D00D92AE37B107D9F721E0AEE7B1E001C028
S11300E01D92A339B207E1F70E9410020C94610437
S11300F00C94000080B382958170809382018130DA
S113010049F5809180018130A9F540918C014F5FC0
S11301104A3008F0482F40938C011092800181E00E
S113012090E090938E0180938D0110927E0161E0A6
S113013083E891E00E943D0140918C0160E083E8F6
S113014091E00E9482018FED9EE20197F1F700C0D9
S1130150000010C080918001811109C09FEF2FEC35
S113016087E0915020408040E1F700C0000081E02A
S11301708093800180B385FB882780F98093810177
S1130180813081F580917F018130E1F540918B01CF
S11301904F5F4A3008F0482F40938B0110927F0143
S11301A082E090E090938E0180938D0181E08093B2
S11301B07E0162E083E891E00E943D0140918B0161
S11301C061E083E891E00E94820160918B0183E801
S11301D091E00E944F018FED9EE20197F1F700C07C
S11301E00000089580917F01811109C09FEF2FECD9
S11301F087E0915020408040E1F700C0000081E09A
S113020080937F01089590E08C30910528F5FC01DE
S1130210E65DFF4F0C94460480EC88BB089589EF9B
S113022088BB089584EA88BB089580EB88BB089551
S113023089E988BB089582E988BB089582E888BB70
S1130240089588EF88BB089580E888BB089580E905
S113025088BB08958FEF88BB81E488BB0895909193
S11302608901992319F00E94030108958BE00E94EB
S1130270030108950E9403010895623041F0633040
S113028051F0613059F4842F0E943A010895842F6B
S11302900E942F010895842F0E943A010895862F09
S11302A090E0FC013197E930F10538F5EA5CFF4F45
S11302B00C94460488E180938A01089584E1809334
S11302C08A0108958DE080938A0108958BE08093DC
S11302D08A01089587E080938A01089585E08093D8
S11302E08A01089583E080938A01089582E08093CF
S11302F08A01089581E080938A010895862F0E94DF
S11303002A020895862F642F90E00E9454040895D1
S1130310862F90E00E944C04089520E030E080E0B5
S11303202830310554F4880F962F9170892B70E092
S1130330759567952F5F3F4FF3CF08950E948D0108
S11303408BBB08950E949E010895089518BA8FEFFB
S113035087BB089512BA81B311BA81B38C7F81BB74
S113036082B3816082BB82B3826082BB82B38460C9
S113037082BB82B3806282BB08958FEF8BBB8ABB42
S1130380089515BA8FEF84BB0895F8948EB58860EC
S11303908EBD8EB585608EBD81EA97E09BBD8ABD1A
S11303A089B7806189BF13BE83B7856083BF8CE939
S11303B08CBF89B7826089BF78940895CF93DF9307
S11303C0EC010E94A601CE010E94AA01CE010E9466
S11303D0BD01CE010E94C101CE010E94C501DF9181
S11303E0CF91089580B3817090B3292F227091FF2B
S11303F006C0811104C088E080938401089581308F
S113040031F4211104C084E080938401089586E8C6
S113041088BB15BA1BBA86E888BB15BA1BBAFBCFD2
S1130420CF93DF931F92CDB7DEB7CE0101960E9422
S1130430A501CE0101960E94DE01CE0101960E9423
S1130440F20183E090E090938E0180938D010E94ED
S11304507A00FDCF85BB0895E82F80918401843014
S113046021F0883009F471C008958E2F90E0FC01CA
S11304703197EA30F10508F0CDC0E15CFF4F0C94F0
S113048046048AE091E090938601809385018EE092
S113049080938701089588E191E090938601809389
S11304A0850182E18093870108958AE291E0909327
S11304B086018093850182E08093870108958CE210
S11304C091E0909386018093850188E08093870171
S11304D0089584E391E090938601809385018DE0F3
S11304E080938701089581E491E09093860180933D
S11304F0850182E180938701089583E591E09093DB
S113050086018093850188E08093870108958BE5B7
S113051091E0909386018093850187E08093870121
S1130520089582E691E090938601809385018FE09F
S113053080938701089581E791E0909386018093E9
S113054085018CE08093870108958E2F90E0FC0153
S11305503197E930F10508F05DC0E75BFF4F0C947B
S1130560460480E690E090938601809385018FE1B4
S11305708093870108958FE790E09093860180939C
S1130580850182E180938701089581E990E0909349
S11305908601809385018CE08093870108958DE91D
S11305A090E090938601809385018CE1809387018C
S11305B0089589EB90E0909386018093850189E00A
S11305C080938701089582EC90E090938601809354
S11305D0850180E280938701089582EE90E09093F4
S11305E086018093850188E08093870108958AEECF
S11305F090E0909386018093850183E18093870145
S113060008958DEF90E090938601809385018DE0AD
S113061080938701089590E0FC013197E930F1055A
S113062038F5EE5AFF4F0C94460488E180938A0112
S1130630089584E180938A0108958DE080938A016E
S113064008958BE080938A01089587E080938A015E
S1130650089585E080938A01089583E080938A0158
S1130660089582E080938A01089581E080938A014D
S113067008951F920F920FB60F9211242F933F9358
S11306804F935F936F937F938F939F93AF93BF9396
S1130690CF93EF93FF9380919101909192010196F2
S11306A0909392018093910180918D0190918E019C
S11306B08230910599F083309105E9F0019709F0B2
S11306C047C080918C010E942C02109290011092DC
S11306D08F0110928E0110928D013AC010929201F6
S11306E01092910180918B010E940B0310928E0154
S11306F010928D012DC010929201109291011092CE
S1130700900110928F0161E083E891E00E948801DA
S1130710C82F80938B010E940B034C2F62E083E867
S113072091E00E943D0160E083E891E00E9488012D
S1130730C82F80938C01482F61E083E891E00E94E8
S11307403D018C2F0E942C0210928E0110928D017B
S113075080918A0190E020919101309192012817B3
S113076039070CF440C010929201109291018091CB
S11307708F019091900101969093900180938F0145
S11307802091870130E02150310928173907A4F05E
S1130790E0918501F09186018E0F9F1FFC01319736
S11307A0C0816C2F83E891E00E947E016C2F83E866
S11307B091E00E94A20117C0E0918501F0918601A9
S11307C08E0F9F1FFC013197C0816C2F83E891E04D
S11307D00E947E016C2F83E891E00E94A201109296
S11307E0900110928F01FF91EF91CF91BF91AF9142
S11307F09F918F917F916F915F914F913F912F9135
S11308000F900FBE0F901F9018951F920F920FB666
S11308100F9211242F933F934F935F936F937F9382
S11308208F939F93AF93BF93EF93FF93809188012E
S11308308F5F809388018330C1F480917E01813081
S113084091F490918901911180E080938901813024
S113085041F440918B0162E083E891E00E943D0104
S113086002C08FEF88BB10928801FF91EF91BF9176
S1130870AF919F918F917F916F915F914F913F9134
S11308802F910F900FBE0F901F901895EE0FFF1F22
S11308900590F491E02D0994E199FECF9FBB8EBBA6
S11308A0E09A99278DB30895262FE199FECF9FBB37
S11308B08EBB2DBB0FB6F894E29AE19A0FBE019657
S10908C00895F894FFCF37
S11308C60103070F1F3F7FFF7F3F1F0F0703010031
S11308D680C0E0F0F8FCFEFFFEFCF8F0E0C080010A
S11308E60204081020408000804020100804020101
S11308F6008189999BDBDFFFDFDB9B998981C3E755
S1130906FFE7C3810080C0E0F0F8FCFEFF7F3F1FD5
S11309160F87C3E1F0F8FCFEFF8142241824182453
S11309264281CC33CC33CC33CC33CC33CC33CC3301
S1130936CC33AA55AA55AA55AA55AA55AA55AA55B5
S1130946AA55F8F1E3C78F1F3E7CFFFEFCF8F000C2
S1130956F103F70FF00FF00F80CFEFFF00C3241859
S11309666699663C7EFF7E3C1800103070F070304D
S11309761080C0E0F0E0C08010204080102040804D
S11309860080402010804020100050A01090B0F04D
S1130996D090100010204080C0A090A0C0E0D0E00D
S11309A6F0F0E0D0B070B0D0E0F0E0C0903090C08D
S11309B680100090A0906090C09030D090108090ED
S11309C6B0F0100030007000F0008000C000E000BD
S11109D6F0F06000F09000F0C000F03000007F
S9030000FC
